:1000000019C028C027C026C025C024C023C022C0D4
:1000100021C020C01FC01EC01DC01CC01BC01AC0F4
:1000200019C018C017C016C015C015C013C012C023
:1000300011C010C011241FBECFEFD4E0DEBFCDBF72
:1000400021E0A0E0B1E001C01D92A130B207E1F7CC
:1000500022D02CC0D5CF1F920F920FB60F92112431
:100060008F939F9380917900809300018B3A10F0D9
:1000700080E605C0863510F080EA01C080EC8BB9BF
:1000800098B180E2892788B99F918F910F900FBE18
:100090000F901F90189580EE8AB980E287B98093FF
:1000A0007C008BEE80937A007894FFCFF894FFCF9A
:00000001FF
