:1000000019C020C01FC01EC01DC01CC01BC01AC00C
:1000100019C018C017C016C015C014C013C012C034
:1000200011C010C00FC00EC00DC00CC00BC00AC064
:1000300009C008C011241FBECFEFD4E0DEBFCDBF82
:1000400002D027C0DDCF80EE8AB980E287B98093E5
:100050007C0087E880937A0090E220E430E8909377
:100060007C0080917A00806480937A0080917A008D
:1000700086FDFCCF809179008B3A10F03BB905C02A
:10008000863510F02BB901C09BB988B1892788B992
:06009000E6CFF894FFCF5B
:00000001FF
